S016000074657374657863657074696F6E732E737265630C
S11300009702000093828208739052309701002077
S11300109381417F178100201301C1FE93804187A2
S11300209384019C6F0000012380000093870000EB
S113003093801700E3EA90FEB7070020938007003F
S113004093844187B71700001389C7716F0040017B
S1130050834709002380F0009380100013091900DE
S1130060E3E890FEEF00505F13060000B70700209E
S11300709385070013055000EF00800293000500EC
S113008013850000EF00C066130101FF23268100E1
S113009013040101130000006FF0DFFF13000000E0
S11300A0130101FF232611002324810013040101FD
S11300B093050000B7C7010013850720EF00C05364
S11300C0970200009382020973905230B717000020
S11300D013858759EF00005573000000730010006A
S11300E0B702003003830200B702003023806200AD
S11300F0B70200209382120003930200B70200208B
S11301009382120023906200B702002093821200AF
S113011003A30200B70200209382120023A062000E
S113012000000000B70200206780020013000000F6
S1130130930210006780020013000000B71700004C
S11301401385475BEF00004E130000006FF0DFFFE4
S1130150130101FA232E1104232C5104232A6104D0
S11301602328710423268104232491042322A10437
S11301702320B104232EC102232CD102232AE1021D
S11301802328F1022326010323241103232221031C
S113019023203103232EC101232CD101232AE10181
S11301A02328F10113040106F32720349380070068
S11301B09387000013890700F32710349380070006
S11301C09387000093840700F3273034938007005B
S11301D09387000093890700B71700001385C75B56
S11301E0EF0040449305800013050900EF008047A9
S11301F0B71700001385475DEF00C04293058000E8
S113020013850400EF000046B71700001385075E4E
S1130210EF0040419305800013850900EF008044FE
S1130220B71700001385C75EEF00C03F9307B00007
S113023063E6270B13172900B71700009387C76ECF
S1130240B307F70083A7070067800700B71700000C
S11302501385075FEF00003D6F004009B7170000EA
S113026013850761EF00003C6F004008B7170000DA
S11302701385C762EF00003B6F004007B71700000B
S113028013850764EF00003A6F004006B7170000BB
S113029013854765EF0000396F004005B71700006C
S11302A01385C766EF0000386F004004B7170000DD
S11302B013850768EF0000376F004003B71700008D
S11302C01385C769EF0000366F004002B7170000BE
S11302D01385076BEF0000356F004001B71700006E
S11302E01385876DEF00003413000000B71700007A
S11302F01385876EEF000033930710006316F9002F
S11303009304C0126F004001631609009304801324
S11303106F00800093844400232694FA8327C4FA50
S113032073901734130000008320C10583228105D4
S113033003234105832301050324C1048324810489
S113034003254104832501040326C1038326810375
S113035003274103832701030328C1028328810261
S11303600329410283290102032EC101832E810145
S1130370032F4101832F0101130101067300203073
S113038013030500630A06002300B3001306F6FFF7
S113039013031300E31A06FE678000006F000000D9
S11303A0130500006780000013050000678000004B
S11303B0130101FF23202101232611001309060044
S11303C06356C00223248100232291001384050074
S11303D0B384C5000345040013041400EFF05FFC6C
S11303E0E39A84FE03248100832441008320C10016
S11303F013050900032901001301010167800000AE
S1130400130101FF232021012326110013090600F3
S11304106356C00223248100232291001384050023
S1130420B384C500EFF05FF813041400A30FA4FE17
S1130430E39A84FE03248100832441008320C100C5
S1130440130509000329010013010101678000005D
S11304501305100067800000130101FF232611001B
S1130460EF10C0088320C100930760012320F5002A
S11304701305F0FF13010101678000001305F0FF6D
S113048067800000B727000023A2F50013050000D1
S1130490678000001305100067800000130500004A
S11304A067800000130101FE2324C1002326D1002C
S11304B02328E100232AF100232C0101232E11011A
S11304C01305F0FF1301010267800000130101FF0F
S11304D023261100EF1080018320C1009307A000A0
S11304E02320F5001305F0FF1301010167800000CC
S11304F0130101FF23261100EF00507F8320C10068
S1130500930720002320F5001305F0FF13010101D8
S113051067800000B727000023A2F5001305000040
S113052067800000130101FF23261100EF00107CF7
S11305308320C1009307F0012320F5001305F0FF89
S11305401301010167800000130101FF232611003C
S1130550EF00D0798320C1009307B0002320F50079
S11305601305F0FF1301010167800000130101FF6F
S113057023261100EF0090778320C1009307C00069
S11305802320F5001305F0FF13010101678000002B
S113059003A74187B787002093870700930600408D
S11305A0B387D740630C07003305A70063E2A702B3
S11305B023AAA18613050700678000009386019C87
S11305C01387019C23AAD1863305A700E3F2A7FE73
S11305D0130101FF23261100EF0050718320C10095
S11305E09307C0002320F5001307F0FF130507004D
S11305F01301010167800000F32710FC63960700D4
S1130600B7F7FA02938707086306050033D5A702F4
S11306101305F5FFB70700F023A6A70223A0B7022E
S113062067800000630E0502130101FF232481008B
S1130630232611001304050003450500630A050081
S113064013041400EF00C00803450400E31A05FE78
S11306508320C1000324810013010101678000008D
S113066067800000130101FE232E110023220100E4
S113067023240100230601009387F5FF130770006C
S11306806376F70093077000930580001307410019
S1130690B307F700B385B740130690039376F500CC
S11306A0138706036374E600138776052380E70047
S11306B09387F7FF13554500E392F5FE13054100B8
S11306C0EFF05FF68320C10113010102678000008F
S11306D0370700F01375F50F130707022324A7004B
S11306E08327470093F70701E38C07FE6780000028
S11306F0130101FF23248100232611009307000026
S113070013040500638807009305000097000000A8
S1130710E700000083A7818763840700E780070060
S113072013050400EFF09FC7130500006780000065
S1130730130101FF23248100232611001304050063
S11307402316B5002317C500232005002322050026
S1130750232405002322050623280500232A050057
S1130760232C050013068000930500001305C5051E
S1130770EFF01FC1B71700009387C7A82322F40224
S1130780B7170000938747AE2324F402B71700007D
S1130790938787B62326F402B7170000938707BC14
S11307A08320C100232084022328F402032481002F
S11307B01301010167800000B71500003705002010
S11307C01386818193854541130545026F000021FD
S11307D083254500130101FFB7070020232481006E
S11307E02326110093878708130405006384F5000A
S11307F0EF005042832584009387018F6386F500C0
S113080013050400EF0010418325C40093878195EC
S1130810638CF50013050400032481008320C100C8
S1130820130101016F00103F8320C10003248100E4
S1130830130101016780000037050020130101FF47
S11308409307807B13060000930540001305850879
S11308502326110023ACF186EFF09FED1306100060
S1130860930590001385018FEFF09FEC8320C10066
S113087013062000930520011385819513010101BE
S11308806FF01FEB130500006780000083A78187CA
S1130890130101FF232021012326110023248100B9
S11308A0232291001309050063940700EFF0DFF899
S11308B09384818103A4840083A744009387F7FF72
S11308C063D8070283A704006390070C9305C01A3A
S11308D013050900EF00C07913040500631405082B
S11308E023A004009307C0002320F9006F004005F3
S11308F00317C40063140706B707FFFF93871700A5
S113090023220406232004002322040023240400B9
S11309102326F40023280400232A0400232C0400A3
S113092013068000930500001305C405EFF05FA5CE
S1130930232A0402232C040223240404232604046B
S11309408320C10013050400032481008324410093
S113095003290100130101016780000013048406C8
S11309606FF0DFF593074000232005002322F500F4
S11309701305C5002324A4001306001A93050000E0
S1130980EFF01FA023A0840083A404006FF09FF263
S113099083270502639C07009307007D2320F5024B
S11309A083A78187639407006FF01FE967800000C5
S11309B06780000067800000138681819305807240
S11309C0130500006F008001B715000013868181B4
S11309D093854588130500006F004000130101FD55
S11309E02324810223202103232E3101232C4101BE
S11309F02328610123267101232611022322910257
S1130A00232A510193090500138A050013040600E3
S1130A1013090000130B1000930BF0FF83248400D0
S1130A20832A4400938AFAFF63DE0A020324040043
S1130A30E31604FE8320C1020324810283244102BD
S1130A408329C101032A8101832A4101032B010166
S1130A50832BC100130509000329010213010103BB
S1130A606780000083D7C400637EFB008397E400A3
S1130A70638A77019385040013850900E7000A005F
S1130A803369A900938484066FF0DFF9130101FF31
S1130A9023248100138405008395E5002326110097
S1130AA0EF0080316340050283274405B387A70024
S1130AB0232AF4048320C1000324810013010101CB
S1130AC0678000008357C40037F7FFFF1307F7FF61
S1130AD0B3F7E7002316F4006FF0DFFD1305000001
S1130AE06780000083D7C500130101FE232C810019
S1130AF0232A91002328210123263101232E1100CA
S1130B0093F70710930405001384050013090600E6
S1130B1093890600638A07008395E5009306200005
S1130B2013060000EF0040248357C40037F7FFFF8B
S1130B301307F7FFB3F7E7008315E4002316F40067
S1130B40032481018320C10193860900130609004F
S1130B508329C10003290101138504008324410171
S1130B60130101026F00402A130101FF23248100B5
S1130B70138405008395E50023261100EF00C01EB1
S1130B801307F0FF8357C4006312E50237F7FFFF32
S1130B901307F7FFB3F7E7002316F4008320C1001F
S1130BA0032481001301010167800000371700004E
S1130BB0B3E7E7002316F400232AA4046FF01FFE12
S1130BC08395E5006F004000130101FF2324810099
S1130BD02322910013040500138505002326110028
S1130BE023AE0186EFF09F899307F0FF6318F500A9
S1130BF083A7C187638407002320F4008320C100F6
S1130C000324810083244100130101016780000053
S1130C1083A701876388A7148327C501130101FEF5
S1130C20232C8100232E1100232A91002328210143
S1130C302326310113040500638A070483A7C70030
S1130C40638C070293040000130900088327C4017E
S1130C5083A7C700B387970083A50700639C050C8F
S1130C6093844400E39424FF8327C4011305040000
S1130C7083A5C700EF0000288327C40183A50700CC
S1130C806386050013050400EF00C0268325440194
S1130C906386050013050400EF00C0258325C40105
S1130CA06386050013050400EF00C02483250403B4
S1130CB06386050013050400EF00C0238325440365
S1130CC06386050013050400EF00C0228325840316
S1130CD06386050013050400EF00C0218325840406
S1130CE06386050013050400EF00C0208325440437
S1130CF06386050013050400EF00C01F8325C402AA
S1130D006386050013050400EF00C01E8327040258
S1130D10638C070213050400032481018320C101AD
S1130D2083244101032901018329C1001301010224
S1130D306780070083A9050013050400EF00801BEA
S1130D40938509006FF09FF18320C1010324810181
S1130D5083244101032901018329C10013010102F4
S1130D606780000067800000130101FF23248100D5
S1130D702322910013040500138505009305060042
S1130D80138606002326110023AE0186EFF00FF12F
S1130D909307F0FF6318F50083A7C18763840700F6
S1130DA02320F4008320C100032481008324410014
S1130DB01301010167800000130101FF2324810056
S1130DC023229100130405001385050093050600F2
S1130DD0138606002326110023AE0186EFF04FE2AE
S1130DE09307F0FF6318F50083A7C18763840700A6
S1130DF02320F4008320C1000324810083244100C4
S1130E001301010167800000130101FF2324810005
S1130E1023229100130405001385050093050600A1
S1130E20138606002326110023AE0186EFF04FD867
S1130E309307F0FF6318F50083A7C1876384070055
S1130E402320F4008320C100032481008324410073
S1130E501301010167800000130101FF23248100B5
S1130E602322910037140000B71400009387C47143
S1130E701304C4713304F4402320210123261100F8
S1130E80135424409384C47113090000631089042B
S1130E90B7140000371400009387C4711304C4719D
S1130EA03304F440135424409384C47113090000A0
S1130EB0631889028320C100032481008324410034
S1130EC003290100130101016780000083A70400C6
S1130ED01309190093844400E78007006FF01FFB97
S1130EE083A704001309190093844400E7800700D2
S1130EF06FF01FFC638A050E83A7C5FF130101FE73
S1130F00232C8100232E11001384C5FF63D4070012
S1130F103304F4002326A100EF00803183A7418825
S1130F200325C100639E07002322040023A28188B5
S1130F30032481018320C101130101026F00802F6A
S1130F406374F40203260400B306C400639AD70052
S1130F5083A6070083A74700B386C6002320D400D6
S1130F602322F4006FF09FFC1387070083A7470038
S1130F7063840700E37AF4FE832607003306D70070
S1130F806318860203260400B386C6002320D70014
S1130F903306D700E39EC7F803A6070083A74700DC
S1130FA0B306D6002320D7002322F7006FF05FF8A2
S1130FB06378C4009307C0002320F5006FF05FF747
S1130FC003260400B306C400639AD70083A607006F
S1130FD083A74700B386C6002320D4002322F4004D
S1130FE0232287006FF0DFF467800000130101FF04
S1130FF02320210183A70188232481002322910037
S11310002326110093040500138405006398070048
S113101093050000EF00004923A0A1889305040074
S113102013850400EF0000481309F0FF6312250341
S11310301304F0FF8320C10013050400032481007E
S1131040832441000329010013010101678000008A
S1131050130435001374C4FFE30E85FCB305A440E8
S113106013850400EF000044E31625FD6FF05FFCD8
S1131070130101FE232A91009384350093F4C4FFE5
S113108023282101232E1100232C81002326310142
S113109023244101938484009307C00013090500AD
S11310A063F0F40A9304C00063EEB4081305090066
S11310B0EF00001883A7418813840700631A040A09
S11310C09385040013050900EFF05FF29307F0FF26
S11310D0130405006316F51403A441889307040060
S11310E0639C071063040412032A040093050000A0
S11310F013050900330A4401EF00C03A6318AA102B
S11311008327040013050900B384F4409385040085
S1131110EFF0DFED9307F0FF630AF50E8327040079
S1131120B38797002320F40083A74188638E070EBA
S113113003A747006318870C23A207006F0040062B
S1131140E3D404F69307C0002320F900130500003C
S11311508320C10103248101832441010329010166
S11311608329C100032A8100130101026780000062
S113117083260400B386964063CA06061307B000AC
S1131180637AD70423209400330794006390870480
S113119023A2E188832744002320D7002322F700D9
S11311A013050900EF0000091305B4009307440078
S11311B0137585FF3307F540E30CF5F83304E400B9
S11311C0B387A7402320F4006FF09FF823A2E70021
S11311D06FF05FFC032744006396870023A2E18835
S11311E06FF01FFC23A2E7006FF09FFB930704003E
S11311F0032444006FF09FEC1384070083A7470087
S11312006FF01FEE930707006FF05FF29307C000C3
S11312102320F90013050900EF00C0016FF01FF34C
S1131220232095006FF0DFF72322000073001000E5
S113123067800000678000008397C500130101FEEA
S1131240232C8100232A9100232E1100232821011D
S11312502326310113F78700930405001384050046
S1131260631A071203A745006346E00003A70504B9
S11312706356E0100327C4026302071003A90400A5
S11312809396370123A004008325040263DC060A35
S1131290032644058357C40093F74700638E070071
S11312A0832744003306F6408327440363860700FC
S11312B0832704043306F6408327C40283250402EB
S11312C09306000013850400E78007001307F0FF6E
S11312D08357C4006312E50283A604001307D001F8
S11312E06362D70A37074020130717003357D70024
S11312F01377170063080708032704012322040057
S11313002320E40013973701635C07009307F0FF81
S11313106316F50083A7040063940700232AA4043A
S11313208325440323A02401638A0504930744040A
S11313306386F50013850400EFF0DFBB232A040263
S11313406F00C00313060000930610001385040009
S1131350E70007009307F0FF13060500E31CF5F20E
S113136083A70400E38807F21307D0016386E7002C
S1131370130760016394E70623A02401130500000A
S11313806F00C00693E707049397070193D70741BB
S11313906F00400583A90501E38209FE03A9050046
S11313A093F7370023A035013309394113070000AF
S11313B06394070003A745012324E400E35020FDC0
S11313C083278402832504029306090013860900F7
S11313D013850400E78007006348A0028317C40054
S11313E093E707042316F4001305F0FF8320C101DB
S11313F00324810183244101032901018329C100BC
S11314001301010267800000B389A9003309A940D0
S11314106FF0DFFA83A70501638E0704130101FE51
S1131420232C8100232E110013040500630C0500F6
S113143083270502639807002326B100EFF04FD5F8
S11314408325C1008397C500638C0700130504003E
S1131450032481018320C101130101026FF0DFDD48
S11314608320C1010324810113050000130101023B
S113147067800000130500006780000093050500E5
S1131480631E0500B715000037050020138681810F
S113149093854541130545026FF04FD403A5018799
S11314A06FF05FF7130101FF2324810023229100D1
S11314B013040500138505002326110023AE0186BD
S11314C0EFF00F8D9307F0FF6318F50083A7C18732
S11314D0638407002320F4008320C10003248100D7
S11314E083244100130101016780000003A50187E3
S10714F0678000000D
S11314F474657374657863657074696F6E730000E2
S1131504544855415320524953432D56205256337F
S113151432494D2062617265206D6574616C20707E
S1131524726F636573736F72000000005468652002
S1131534486167756520556E697665727369747957
S1131544206F66204170706C69656420536369651B
S11315546E636573000000004465706172746D65A8
S11315646E74206F6620456C656374726963616C84
S113157420456E67696E656572696E6700000000D8
S11315844A2E452E4A2E206F702064656E204272C6
S11315946F7577000D0A457863657074696F6E2002
S11315A4746573742070726F6772616D0D0A000044
S11315B4446F6E650D0A0000204578636570746994
S11315C46F6E2D2D3E206D63617573653A200000A6
S11315D42C206D6570633A20000000002C206D748B
S11315E476616C3A200000002C200000496E73746C
S11315F472756374696F6E206164647265737320B9
S11316046D6973616C69676E65640000496E737417
S113161472756374696F6E206163636573732066A6
S113162461756C7400000000496C6C6567616C2022
S1131634696E737472756374696F6E004272656166
S11316446B706F696E74202865627265616B290022
S11316544C6F61642061646472657373206D697393
S1131664616C69676E6564004C6F616420616363D7
S1131674657373206661756C7400000053746F7233
S1131684652061646472657373206D6973616C6948
S1131694676E65640000000053746F7265206163B3
S11316A463657373206661756C740000456E7669B6
S11316B4726F6E6D656E742063616C6C2066726FFC
S11316C46D204D2D6D6F646520286563616C6C29F4
S11316D4000000004E6F206465736372697074695E
S11316E46F6E00000D0A00004C0200005C02000052
S11316F46C0200007C0200008C0200009C020000CA
S1131704AC020000BC020000DC020000DC020000A9
S10B1714DC020000CC0200001D
S113171CF414000004150000301500005C150000E2
S113172C841500000000000000000000030000000D
S113173C880000200000000088000020F000002039
S113174C5801002000000000000000000000000010
S113175C0000000000000000000000000000000079
S113176C0000000000000000000000000000000069
S113177C0000000000000000000000000000000059
S107178C2400002011
S9030000FC
